{
  "_format": "hh-sol-artifact-1",
  "contractName": "DocumentRegistry",
  "sourceName": "contracts/DocumentRegistry.sol",
  "abi": [
    {
      "anonymous": false,
      "inputs": [
        {
          "indexed": true,
          "internalType": "bytes32",
          "name": "documentId",
          "type": "bytes32"
        },
        {
          "indexed": true,
          "internalType": "address",
          "name": "issuer",
          "type": "address"
        },
        {
          "indexed": false,
          "internalType": "bytes32",
          "name": "documentHash",
          "type": "bytes32"
        },
        {
          "indexed": false,
          "internalType": "string",
          "name": "documentType",
          "type": "string"
        },
        {
          "indexed": false,
          "internalType": "uint256",
          "name": "timestamp",
          "type": "uint256"
        }
      ],
      "name": "DocumentRegistered",
      "type": "event"
    },
    {
      "anonymous": false,
      "inputs": [
        {
          "indexed": true,
          "internalType": "bytes32",
          "name": "oldDocumentId",
          "type": "bytes32"
        },
        {
          "indexed": true,
          "internalType": "bytes32",
          "name": "newDocumentId",
          "type": "bytes32"
        },
        {
          "indexed": true,
          "internalType": "address",
          "name": "issuer",
          "type": "address"
        },
        {
          "indexed": false,
          "internalType": "uint256",
          "name": "timestamp",
          "type": "uint256"
        }
      ],
      "name": "DocumentReissued",
      "type": "event"
    },
    {
      "anonymous": false,
      "inputs": [
        {
          "indexed": true,
          "internalType": "bytes32",
          "name": "documentId",
          "type": "bytes32"
        },
        {
          "indexed": true,
          "internalType": "address",
          "name": "revoker",
          "type": "address"
        },
        {
          "indexed": false,
          "internalType": "uint256",
          "name": "timestamp",
          "type": "uint256"
        }
      ],
      "name": "DocumentRevoked",
      "type": "event"
    },
    {
      "inputs": [
        {
          "internalType": "bytes32",
          "name": "",
          "type": "bytes32"
        }
      ],
      "name": "documents",
      "outputs": [
        {
          "internalType": "address",
          "name": "issuer",
          "type": "address"
        },
        {
          "internalType": "bytes32",
          "name": "documentHash",
          "type": "bytes32"
        },
        {
          "internalType": "string",
          "name": "documentType",
          "type": "string"
        },
        {
          "internalType": "uint256",
          "name": "issueDate",
          "type": "uint256"
        },
        {
          "internalType": "uint256",
          "name": "expiryDate",
          "type": "uint256"
        },
        {
          "internalType": "bool",
          "name": "revoked",
          "type": "bool"
        },
        {
          "internalType": "bytes32",
          "name": "previousVersion",
          "type": "bytes32"
        }
      ],
      "stateMutability": "view",
      "type": "function"
    },
    {
      "inputs": [
        {
          "internalType": "bytes32",
          "name": "",
          "type": "bytes32"
        }
      ],
      "name": "exists",
      "outputs": [
        {
          "internalType": "bool",
          "name": "",
          "type": "bool"
        }
      ],
      "stateMutability": "view",
      "type": "function"
    },
    {
      "inputs": [
        {
          "internalType": "bytes32",
          "name": "documentId",
          "type": "bytes32"
        }
      ],
      "name": "getDocument",
      "outputs": [
        {
          "internalType": "address",
          "name": "issuer",
          "type": "address"
        },
        {
          "internalType": "bytes32",
          "name": "documentHash",
          "type": "bytes32"
        },
        {
          "internalType": "string",
          "name": "documentType",
          "type": "string"
        },
        {
          "internalType": "uint256",
          "name": "issueDate",
          "type": "uint256"
        },
        {
          "internalType": "uint256",
          "name": "expiryDate",
          "type": "uint256"
        },
        {
          "internalType": "bool",
          "name": "revoked",
          "type": "bool"
        }
      ],
      "stateMutability": "view",
      "type": "function"
    },
    {
      "inputs": [
        {
          "internalType": "bytes32",
          "name": "documentId",
          "type": "bytes32"
        }
      ],
      "name": "getPreviousVersion",
      "outputs": [
        {
          "internalType": "bytes32",
          "name": "",
          "type": "bytes32"
        }
      ],
      "stateMutability": "view",
      "type": "function"
    },
    {
      "inputs": [
        {
          "internalType": "bytes32",
          "name": "documentId",
          "type": "bytes32"
        }
      ],
      "name": "isDocumentValid",
      "outputs": [
        {
          "internalType": "bool",
          "name": "",
          "type": "bool"
        }
      ],
      "stateMutability": "view",
      "type": "function"
    },
    {
      "inputs": [
        {
          "internalType": "bytes32",
          "name": "documentId",
          "type": "bytes32"
        },
        {
          "internalType": "bytes32",
          "name": "documentHash",
          "type": "bytes32"
        },
        {
          "internalType": "string",
          "name": "documentType",
          "type": "string"
        },
        {
          "internalType": "uint256",
          "name": "expiryTimestamp",
          "type": "uint256"
        }
      ],
      "name": "registerDocument",
      "outputs": [],
      "stateMutability": "nonpayable",
      "type": "function"
    },
    {
      "inputs": [
        {
          "internalType": "bytes32",
          "name": "oldDocumentId",
          "type": "bytes32"
        },
        {
          "internalType": "bytes32",
          "name": "newDocumentId",
          "type": "bytes32"
        },
        {
          "internalType": "bytes32",
          "name": "newDocumentHash",
          "type": "bytes32"
        },
        {
          "internalType": "string",
          "name": "documentType",
          "type": "string"
        },
        {
          "internalType": "uint256",
          "name": "expiryTimestamp",
          "type": "uint256"
        }
      ],
      "name": "reissueDocument",
      "outputs": [],
      "stateMutability": "nonpayable",
      "type": "function"
    },
    {
      "inputs": [
        {
          "internalType": "bytes32",
          "name": "documentId",
          "type": "bytes32"
        }
      ],
      "name": "revokeDocument",
      "outputs": [],
      "stateMutability": "nonpayable",
      "type": "function"
    }
  ],
  "bytecode": "0x6080806040523461001657610d2a908161001c8239f35b600080fdfe6080604052600436101561001257600080fd5b60003560e01c80632b2805db1461091757806338a699a4146108e657806381450e5b146108be578063952be80d146107cb578063b10d6b41146106e8578063cbdbffa614610418578063d2473dfb146100c25763e76861f61461007457600080fd5b346100bd5760203660031901126100bd576004358060005260016020526100a260ff60406000205416610ba2565b60005260006020526020600660406000200154604051908152f35b600080fd5b346100bd5760a03660031901126100bd5767ffffffffffffffff6044356064358281116100bd576100f7903690600401610b07565b91600435600052600160205261011460ff60406000205416610ba2565b600435600052600060205260018060a01b039261013984604060002054163314610bee565b602435600052600160205260ff604060002054166103d35761015c831515610b5e565b60043560005260006020526005604060002001600160ff1982541617905560405192610187846109e3565b33845260208401908152604084019182524260608501526084356080850152600060a085015260043560c085015260243560005260006020526040600020948451166bffffffffffffffffffffffff60a01b8654161785555160018501555180519182116103bd576101fc60028501546109a9565b601f8111610376575b50602090601f83116001146103015791806006949260c0946000926102f6575b50508160011b916000199060031b1c19161760028501555b606081015160038501556080810151600485015561027060a08201511515600586019060ff801983541691151516179055565b015191015560243560005260016020526040600020600160ff1982541617905560405142815233907f58dab06ff4a881de7cd15a590640a447aec068b61e18a8b9b4ae28a8984fe3d6602060043592a36040514281523390602435907f61915f38ce536dda7988fe0e1aaaf6abb50a11b9ccc56bac01853bb3ff2add25602060043592a4005b015190508680610225565b906002850160005260206000209160005b601f198516811061035e5750926006949260019260c09583601f19811610610345575b505050811b01600285015561023d565b015160001960f88460031b161c19169055868080610335565b91926020600181928685015181550194019201610312565b600285016000526020600020601f840160051c8101602085106103b6575b601f830160051c820181106103aa575050610205565b60008155600101610394565b5080610394565b634e487b7160e01b600052604160045260246000fd5b60405162461bcd60e51b815260206004820152601e60248201527f4e657720646f63756d656e7420494420616c72656164792065786973747300006044820152606490fd5b346100bd5760803660031901126100bd5767ffffffffffffffff6044358181116100bd5761044a903690600401610b07565b90600435600052600160205260ff604060002054166106a3576104706024351515610b5e565b60405161047c816109e3565b33815260208101916024358352604082018481524260608401526064356080840152600060a0840152600060c0840152600435600052600060205260406000209360018060a01b038451166bffffffffffffffffffffffff60a01b8654161785555160018501555180519182116103bd576104fa60028501546109a9565b601f811161065c575b50602090601f83116001146105e95791806006949260c0946000926105de575b50508160011b916000199060031b1c19161760028501555b606081015160038501556080810151600485015561056e60a08201511515600586019060ff801983541691151516179055565b015191015560043560005260016020526040600020600160ff198254161790556105ab604051916024358352606060208401526060830190610ac7565b4260408301527f2e1e7390ea0cf7a7c546c3533165e000c8582df0c4967bf32f4e0981d91d4578339280600435930390a3005b015190508780610523565b90601f198316916002860160005260206000209260005b818110610644575092600192859260c096600698961061062b575b505050811b01600285015561053b565b015160001960f88460031b161c1916905587808061061b565b92936020600181928786015181550195019301610600565b600285016000526020600020601f840160051c81016020851061069c575b601f830160051c82018110610690575050610503565b6000815560010161067a565b508061067a565b60405162461bcd60e51b815260206004820152601760248201527f446f63756d656e7420616c7265616479206578697374730000000000000000006044820152606490fd5b346100bd5760203660031901126100bd5760043580600052600160205261071660ff60406000205416610ba2565b6000526000602052604060002060405190610730826109e3565b80546001600160a01b0390811683526001820154602084019081529161075860028201610a21565b938460408201526107b7600383015493846060840152600484015492836080820152600660ff6005870154161515958660a0840152015460c082015251169451956040519687968752602087015260c0604087015260c0860190610ac7565b926060850152608084015260a08301520390f35b346100bd576020806003193601126100bd5760043580600052600182526107f960ff60406000205416610ba2565b806000526000825261081960018060a01b03604060002054163314610bee565b806000526000825260ff600560406000200154166108795780600052600082526005604060002001600160ff198254161790557f58dab06ff4a881de7cd15a590640a447aec068b61e18a8b9b4ae28a8984fe3d6604051924284523393a3005b60405162461bcd60e51b815260048101839052601860248201527f446f63756d656e7420616c7265616479207265766f6b656400000000000000006044820152606490fd5b346100bd5760203660031901126100bd5760206108dc600435610c46565b6040519015158152f35b346100bd5760203660031901126100bd576004356000526001602052602060ff604060002054166040519015158152f35b346100bd5760203660031901126100bd576004356000526000602052604060002060018060a01b0381541660018201549161095460028201610a21565b600382015491600481015461098e600660ff600585015416930154936040519788978852602088015260e0604088015260e0870190610ac7565b9360608601526080850152151560a084015260c08301520390f35b90600182811c921680156109d9575b60208310146109c357565b634e487b7160e01b600052602260045260246000fd5b91607f16916109b8565b60e0810190811067ffffffffffffffff8211176103bd57604052565b90601f8019910116810190811067ffffffffffffffff8211176103bd57604052565b9060405191826000825492610a35846109a9565b908184526001948581169081600014610aa45750600114610a61575b5050610a5f925003836109ff565b565b9093915060005260209081600020936000915b818310610a8c575050610a5f93508201013880610a51565b85548884018501529485019487945091830191610a74565b915050610a5f94506020925060ff191682840152151560051b8201013880610a51565b919082519283825260005b848110610af3575050826000602080949584010152601f8019910116010190565b602081830181015184830182015201610ad2565b81601f820112156100bd5780359067ffffffffffffffff82116103bd5760405192610b3c601f8401601f1916602001856109ff565b828452602083830101116100bd57816000926020809301838601378301015290565b15610b6557565b60405162461bcd60e51b8152602060048201526015602482015274092dcecc2d8d2c840c8dec6eadacadce840d0c2e6d605b1b6044820152606490fd5b15610ba957565b60405162461bcd60e51b815260206004820152601760248201527f446f63756d656e7420646f6573206e6f742065786973740000000000000000006044820152606490fd5b15610bf557565b60405162461bcd60e51b815260206004820152602360248201527f4f6e6c79206973737565722063616e20706572666f726d20746869732061637460448201526234b7b760e91b6064820152608490fd5b6000908152600160205260ff60408220541615610ce357806020526040812060405190610c72826109e3565b80546001600160a01b0316825260018101546020830152610c9560028201610a21565b60408301526003810154606083015260048101549182608082015260c0600660ff6005850154161515938460a08501520154910152610cf0578015159081610ce6575b50610ce35750600190565b90565b9050421138610cd8565b509056fea2646970667358221220cdf4c52b60faa1bead55a5f5d44e8346588b21f409391d584d9702355184708d64736f6c63430008130033",
  "linkReferences": {},
  "deployedLinkReferences": {}
}